{
  "contractName": "Pilot",
  "abi": [
    {
      "inputs": [],
      "name": "creatorCount",
      "outputs": [
        {
          "internalType": "uint256",
          "name": "",
          "type": "uint256"
        }
      ],
      "stateMutability": "view",
      "type": "function",
      "constant": true
    },
    {
      "inputs": [
        {
          "internalType": "address",
          "name": "",
          "type": "address"
        }
      ],
      "name": "creatorList",
      "outputs": [
        {
          "internalType": "address",
          "name": "creatorAddress",
          "type": "address"
        },
        {
          "internalType": "string",
          "name": "profileId",
          "type": "string"
        },
        {
          "internalType": "bool",
          "name": "isActive",
          "type": "bool"
        }
      ],
      "stateMutability": "view",
      "type": "function",
      "constant": true
    },
    {
      "inputs": [
        {
          "internalType": "uint256",
          "name": "",
          "type": "uint256"
        }
      ],
      "name": "creators",
      "outputs": [
        {
          "internalType": "address",
          "name": "",
          "type": "address"
        }
      ],
      "stateMutability": "view",
      "type": "function",
      "constant": true
    },
    {
      "inputs": [
        {
          "internalType": "string",
          "name": "Id",
          "type": "string"
        }
      ],
      "name": "createAccount",
      "outputs": [],
      "stateMutability": "nonpayable",
      "type": "function"
    },
    {
      "inputs": [],
      "name": "deleteAccount",
      "outputs": [],
      "stateMutability": "nonpayable",
      "type": "function"
    },
    {
      "inputs": [
        {
          "internalType": "address",
          "name": "id",
          "type": "address"
        }
      ],
      "name": "getCreatorId",
      "outputs": [
        {
          "internalType": "string",
          "name": "",
          "type": "string"
        }
      ],
      "stateMutability": "view",
      "type": "function",
      "constant": true
    }
  ],
  "bytecode": "0x608060405234801561001057600080fd5b50610cad806100206000396000f3fe608060405234801561001057600080fd5b50600436106100625760003560e01c8063115b157014610067578063298daf5b14610099578063341158d4146100b55780633be32f7d146100e5578063cd53d08e146100ef578063d82faa481461011f575b600080fd5b610081600480360381019061007c91906105ac565b61013d565b6040516100909392919061069c565b60405180910390f35b6100b360048036038101906100ae919061080f565b61021c565b005b6100cf60048036038101906100ca91906105ac565b6103c4565b6040516100dc9190610858565b60405180910390f35b6100ed610498565b005b610109600480360381019061010491906108b0565b6104f5565b60405161011691906108dd565b60405180910390f35b610127610534565b6040516101349190610907565b60405180910390f35b60016020528060005260406000206000915090508060000160009054906101000a900473ffffffffffffffffffffffffffffffffffffffff169080600101805461018690610951565b80601f01602080910402602001604051908101604052809291908181526020018280546101b290610951565b80156101ff5780601f106101d4576101008083540402835291602001916101ff565b820191906000526020600020905b8154815290600101906020018083116101e257829003601f168201915b5050505050908060020160009054906101000a900460ff16905083565b33600160003373ffffffffffffffffffffffffffffffffffffffff1673ffffffffffffffffffffffffffffffffffffffff16815260200190815260200160002060000160006101000a81548173ffffffffffffffffffffffffffffffffffffffff021916908373ffffffffffffffffffffffffffffffffffffffff16021790555080600160003373ffffffffffffffffffffffffffffffffffffffff1673ffffffffffffffffffffffffffffffffffffffff16815260200190815260200160002060010190816102ec9190610b2e565b5060018060003373ffffffffffffffffffffffffffffffffffffffff1673ffffffffffffffffffffffffffffffffffffffff16815260200190815260200160002060020160006101000a81548160ff0219169083151502179055506002339080600181540180825580915050600190039060005260206000200160009091909190916101000a81548173ffffffffffffffffffffffffffffffffffffffff021916908373ffffffffffffffffffffffffffffffffffffffff1602179055506000808154809291906103bc90610c2f565b919050555050565b6060600160008373ffffffffffffffffffffffffffffffffffffffff1673ffffffffffffffffffffffffffffffffffffffff168152602001908152602001600020600101805461041390610951565b80601f016020809104026020016040519081016040528092919081815260200182805461043f90610951565b801561048c5780601f106104615761010080835404028352916020019161048c565b820191906000526020600020905b81548152906001019060200180831161046f57829003601f168201915b50505050509050919050565b6000600160003373ffffffffffffffffffffffffffffffffffffffff1673ffffffffffffffffffffffffffffffffffffffff16815260200190815260200160002060020160006101000a81548160ff021916908315150217905550565b6002818154811061050557600080fd5b906000526020600020016000915054906101000a900473ffffffffffffffffffffffffffffffffffffffff1681565b60005481565b6000604051905090565b600080fd5b600080fd5b600073ffffffffffffffffffffffffffffffffffffffff82169050919050565b60006105798261054e565b9050919050565b6105898161056e565b811461059457600080fd5b50565b6000813590506105a681610580565b92915050565b6000602082840312156105c2576105c1610544565b5b60006105d084828501610597565b91505092915050565b6105e28161056e565b82525050565b600081519050919050565b600082825260208201905092915050565b60005b83811015610622578082015181840152602081019050610607565b83811115610631576000848401525b50505050565b6000601f19601f8301169050919050565b6000610653826105e8565b61065d81856105f3565b935061066d818560208601610604565b61067681610637565b840191505092915050565b60008115159050919050565b61069681610681565b82525050565b60006060820190506106b160008301866105d9565b81810360208301526106c38185610648565b90506106d2604083018461068d565b949350505050565b600080fd5b600080fd5b7f4e487b7100000000000000000000000000000000000000000000000000000000600052604160045260246000fd5b61071c82610637565b810181811067ffffffffffffffff8211171561073b5761073a6106e4565b5b80604052505050565b600061074e61053a565b905061075a8282610713565b919050565b600067ffffffffffffffff82111561077a576107796106e4565b5b61078382610637565b9050602081019050919050565b82818337600083830152505050565b60006107b26107ad8461075f565b610744565b9050828152602081018484840111156107ce576107cd6106df565b5b6107d9848285610790565b509392505050565b600082601f8301126107f6576107f56106da565b5b813561080684826020860161079f565b91505092915050565b60006020828403121561082557610824610544565b5b600082013567ffffffffffffffff81111561084357610842610549565b5b61084f848285016107e1565b91505092915050565b600060208201905081810360008301526108728184610648565b905092915050565b6000819050919050565b61088d8161087a565b811461089857600080fd5b50565b6000813590506108aa81610884565b92915050565b6000602082840312156108c6576108c5610544565b5b60006108d48482850161089b565b91505092915050565b60006020820190506108f260008301846105d9565b92915050565b6109018161087a565b82525050565b600060208201905061091c60008301846108f8565b92915050565b7f4e487b7100000000000000000000000000000000000000000000000000000000600052602260045260246000fd5b6000600282049050600182168061096957607f821691505b60208210810361097c5761097b610922565b5b50919050565b60008190508160005260206000209050919050565b60006020601f8301049050919050565b600082821b905092915050565b6000600883026109e47fffffffffffffffffffffffffffffffffffffffffffffffffffffffffffffffff826109a7565b6109ee86836109a7565b95508019841693508086168417925050509392505050565b6000819050919050565b6000610a2b610a26610a218461087a565b610a06565b61087a565b9050919050565b6000819050919050565b610a4583610a10565b610a59610a5182610a32565b8484546109b4565b825550505050565b600090565b610a6e610a61565b610a79818484610a3c565b505050565b5b81811015610a9d57610a92600082610a66565b600181019050610a7f565b5050565b601f821115610ae257610ab381610982565b610abc84610997565b81016020851015610acb578190505b610adf610ad785610997565b830182610a7e565b50505b505050565b600082821c905092915050565b6000610b0560001984600802610ae7565b1980831691505092915050565b6000610b1e8383610af4565b9150826002028217905092915050565b610b37826105e8565b67ffffffffffffffff811115610b5057610b4f6106e4565b5b610b5a8254610951565b610b65828285610aa1565b600060209050601f831160018114610b985760008415610b86578287015190505b610b908582610b12565b865550610bf8565b601f198416610ba686610982565b60005b82811015610bce57848901518255600182019150602085019450602081019050610ba9565b86831015610beb5784890151610be7601f891682610af4565b8355505b6001600288020188555050505b505050505050565b7f4e487b7100000000000000000000000000000000000000000000000000000000600052601160045260246000fd5b6000610c3a8261087a565b91507fffffffffffffffffffffffffffffffffffffffffffffffffffffffffffffffff8203610c6c57610c6b610c00565b5b60018201905091905056fea2646970667358221220b24fa0a787184295125728bb20bfa251cdecfbeafcfdb848b27787040ae56ab364736f6c634300080f0033",
  "immutableReferences": {},
  "source": " ///SPDX-License-Identifier: GPL-3.0\r\npragma solidity  ^ 0.8.0 ;\r\n//contract to store creators limited to pilot;\r\ncontract Pilot{\r\nstruct Creator{\r\n    address creatorAddress;\r\n    string profileId;   \r\n    bool isActive;\r\n}\r\n\r\nuint256 public creatorCount;\r\nmapping(address=>Creator) public creatorList;\r\naddress[] public creators ;\r\nfunction createAccount (string memory Id) public{\r\n    creatorList[msg.sender].creatorAddress = msg.sender;\r\n    creatorList[msg.sender].profileId  = Id;\r\n    creatorList[msg.sender].isActive = true;\r\n    creators.push(msg.sender);\r\n     creatorCount++;\r\n}\r\nfunction deleteAccount ()public{\r\n    creatorList[msg.sender].isActive = false;\r\n}\r\nfunction getCreatorId(address id)public view returns(string memory){\r\n    return creatorList[id].profileId;\r\n}\r\n\r\n}",
  "sourcePath": "D:\\OpenSource\\BlockChain\\Projects\\Encode\\pilot\\contracts\\Pilot.sol",
  "compiler": {
    "name": "solc",
    "version": "0.8.15+commit.e14f2714.Emscripten.clang"
  },
  "schemaVersion": "3.4.5",
  "updatedAt": "2022-06-17T13:49:33.066Z",
  "networkType": "ethereum",
  "devdoc": {
    "kind": "dev",
    "methods": {},
    "version": 1
  },
  "userdoc": {
    "kind": "user",
    "methods": {},
    "version": 1
  }
}