{
  "contractName": "Pilot",
  "abi": [
    {
      "inputs": [],
      "name": "creatorCount",
      "outputs": [
        {
          "internalType": "uint256",
          "name": "",
          "type": "uint256"
        }
      ],
      "stateMutability": "view",
      "type": "function",
      "constant": true
    },
    {
      "inputs": [
        {
          "internalType": "uint256",
          "name": "",
          "type": "uint256"
        }
      ],
      "name": "creatorList",
      "outputs": [
        {
          "internalType": "address",
          "name": "creatorAddress",
          "type": "address"
        },
        {
          "internalType": "bool",
          "name": "isActive",
          "type": "bool"
        }
      ],
      "stateMutability": "view",
      "type": "function",
      "constant": true
    },
    {
      "inputs": [
        {
          "internalType": "uint256",
          "name": "",
          "type": "uint256"
        }
      ],
      "name": "creators",
      "outputs": [
        {
          "internalType": "address",
          "name": "",
          "type": "address"
        }
      ],
      "stateMutability": "view",
      "type": "function",
      "constant": true
    },
    {
      "inputs": [],
      "name": "createAccount",
      "outputs": [],
      "stateMutability": "nonpayable",
      "type": "function"
    },
    {
      "inputs": [
        {
          "internalType": "uint256",
          "name": "id",
          "type": "uint256"
        }
      ],
      "name": "deleteAccount",
      "outputs": [],
      "stateMutability": "nonpayable",
      "type": "function"
    },
    {
      "inputs": [
        {
          "internalType": "uint256",
          "name": "id",
          "type": "uint256"
        }
      ],
      "name": "getCreator",
      "outputs": [
        {
          "components": [
            {
              "internalType": "address",
              "name": "creatorAddress",
              "type": "address"
            },
            {
              "internalType": "bool",
              "name": "isActive",
              "type": "bool"
            }
          ],
          "internalType": "struct Pilot.Creator",
          "name": "",
          "type": "tuple"
        }
      ],
      "stateMutability": "view",
      "type": "function",
      "constant": true
    }
  ],
  "bytecode": "0x608060405234801561001057600080fd5b5061061c806100206000396000f3fe608060405234801561001057600080fd5b50600436106100625760003560e01c806312697362146100675780632fb1271d146100985780639dca362f146100b4578063cd53d08e146100be578063d48e638a146100ee578063d82faa481461011e575b600080fd5b610081600480360381019061007c9190610410565b61013c565b60405161008f929190610499565b60405180910390f35b6100b260048036038101906100ad9190610410565b61018d565b005b6100bc6101bf565b005b6100d860048036038101906100d39190610410565b6102c0565b6040516100e591906104c2565b60405180910390f35b61010860048036038101906101039190610410565b6102ff565b604051610115919061052a565b60405180910390f35b61012661039d565b6040516101339190610554565b60405180910390f35b60016020528060005260406000206000915090508060000160009054906101000a900473ffffffffffffffffffffffffffffffffffffffff16908060000160149054906101000a900460ff16905082565b60006001600083815260200190815260200160002060000160146101000a81548160ff02191690831515021790555050565b33600160008054815260200190815260200160002060000160006101000a81548173ffffffffffffffffffffffffffffffffffffffff021916908373ffffffffffffffffffffffffffffffffffffffff16021790555060018060008054815260200190815260200160002060000160146101000a81548160ff0219169083151502179055506002339080600181540180825580915050600190039060005260206000200160009091909190916101000a81548173ffffffffffffffffffffffffffffffffffffffff021916908373ffffffffffffffffffffffffffffffffffffffff1602179055506000808154809291906102b99061059e565b9190505550565b600281815481106102d057600080fd5b906000526020600020016000915054906101000a900473ffffffffffffffffffffffffffffffffffffffff1681565b6103076103a3565b600160008381526020019081526020016000206040518060400160405290816000820160009054906101000a900473ffffffffffffffffffffffffffffffffffffffff1673ffffffffffffffffffffffffffffffffffffffff1673ffffffffffffffffffffffffffffffffffffffff1681526020016000820160149054906101000a900460ff1615151515815250509050919050565b60005481565b6040518060400160405280600073ffffffffffffffffffffffffffffffffffffffff1681526020016000151581525090565b600080fd5b6000819050919050565b6103ed816103da565b81146103f857600080fd5b50565b60008135905061040a816103e4565b92915050565b600060208284031215610426576104256103d5565b5b6000610434848285016103fb565b91505092915050565b600073ffffffffffffffffffffffffffffffffffffffff82169050919050565b60006104688261043d565b9050919050565b6104788161045d565b82525050565b60008115159050919050565b6104938161047e565b82525050565b60006040820190506104ae600083018561046f565b6104bb602083018461048a565b9392505050565b60006020820190506104d7600083018461046f565b92915050565b6104e68161045d565b82525050565b6104f58161047e565b82525050565b60408201600082015161051160008501826104dd565b50602082015161052460208501826104ec565b50505050565b600060408201905061053f60008301846104fb565b92915050565b61054e816103da565b82525050565b60006020820190506105696000830184610545565b92915050565b7f4e487b7100000000000000000000000000000000000000000000000000000000600052601160045260246000fd5b60006105a9826103da565b91507fffffffffffffffffffffffffffffffffffffffffffffffffffffffffffffffff82036105db576105da61056f565b5b60018201905091905056fea2646970667358221220455492fbab46a168c6955300490945b1a2422c8cc1168f11c5b4c8f29df0ecd564736f6c634300080e0033",
  "immutableReferences": {},
  "source": " ///SPDX-License-Identifier: GPL-3.0\r\npragma solidity  ^ 0.8.0 ;\r\n//contract to store creators limited to pilot;\r\ncontract Pilot{\r\nstruct Creator{\r\n    address creatorAddress;   \r\n    bool isActive;\r\n}\r\n\r\nuint256 public creatorCount;\r\nmapping(uint256=>Creator) public creatorList;\r\naddress[] public creators ;\r\nfunction createAccount () public{\r\n    creatorList[creatorCount].creatorAddress = msg.sender;\r\n    creatorList[creatorCount].isActive = true;\r\n    creators.push(msg.sender);\r\n     creatorCount++;\r\n}\r\nfunction deleteAccount (uint id)public{\r\n    creatorList[id].isActive = false;\r\n}\r\nfunction getCreator(uint id)public view returns(Creator memory){\r\n    return creatorList[id];\r\n}\r\n\r\n}",
  "sourcePath": "D:\\OpenSource\\BlockChain\\Projects\\Encode\\pilot\\contracts\\Pilot.sol",
  "compiler": {
    "name": "solc",
    "version": "0.8.14+commit.80d49f37.Emscripten.clang"
  },
  "schemaVersion": "3.4.5",
  "updatedAt": "2022-06-15T16:06:18.437Z",
  "networkType": "ethereum",
  "devdoc": {
    "kind": "dev",
    "methods": {},
    "version": 1
  },
  "userdoc": {
    "kind": "user",
    "methods": {},
    "version": 1
  }
}